:0C006200900000E4F09000017401F090A8
:0C006E0000027403F09000037406F09090
:0C007A000004740CF09000057418F09065
:0C00860000067410F09000077410F09059
:0B0092000008E4F09000097410F090EA
:0C009D00000A7418F090000B740CF09036
:0C00A900000C7406F090000D7403F09041
:0C00B500000E7401F090000F7401F09038
:0C00C10000107401F09000117401F09028
:0C00CD000012741BF0900013741EF090E1
:0C00D9000014740CF0900015741EF090E0
:0C00E50000167417F09000177403F090E0
:0C00F10000187410F09000197410F090CA
:0C00FD00001A7418F090001B740CF090B6
:0C010900001C7406F090001D7403F090C0
:0B011500001E7401F090001FE4F09049
:07012000007F7400F0A374DE
:0C01270000F0A37400F0758200120A754D
:0801330090007F7408F0A37432
:0C013B0000F0A37400F0758201120A7538
:0801470090007F7410F0A37416
:0C014F0000F0A37400F0758202120A7523
:08015B0090007F7418F0A374FA
:0C01630000F0A37400F0758203120A750E
:0D016F009000727403F07582011207601297
:0E017C000714D296C29775820012071AD2A5F8
:0E018A00120714C2A59000727404F075820171
:0E019800120760120714D296C29775820112E8
:0A01A600071AD2A5120714C2A59093
:0C01B00000727404F075820212076012E5
:0E01BC000714D296C29775820212071AD2A5B6
:0E01CA00120714C2A59000727403F075820231
:0E01D800120760120714D296C29775820312A6
:0A01E600071AD2A5120714C2A59053
:0C01F00000727405F075820112076012A5
:0901FC000714902E4075F08012EA
:0802050008009000050206D973
:0D020D00E582900020F09000217418F09020
:0C021A0000227414F0900023740AF0908D
:0C02260000247405F09000257405F09091
:0C0232000026740AF09000277414F0906D
:09023E0000287418F090007F7490
:0A02470021F0A37400F0A37400F08E
:0C025100758207120A75900020E0FA90F8
:0D025D000072E4F08A821207609000051222
:0E026A0006D9D296C29775820712071AD2A53E
:06027800120714C2A522CA
:0D027E00E58290002AF090002B74FFF090B4
:0C028B00002C7411F090002D740AF0900B
:0C029700002E7404F090002F7404F0900E
:0C02A3000030740AF09000317411F090EB
:0902AF00003274FFF090007F742E
:0A02B8002BF0A37400F0A37400F013
:0C02C200758206120A7590002AE0FA907E
:0B02CE000029E0FB900072F08A821211
:0E02D90007609000051206D9D296C297758272
:0C02E7000612071AD2A5120714C2A522A5
:0D02F300E582900034F0900035740EF0901C
:0C0300000036740EF0900037740EF09080
:0C030C000038740EF0900039740EF09070
:0B031800003A7404F090003BE4F09009
:09032300003C7404F090007F74AA
:0A032C0035F0A37400F0A37400F094
:0C033600758205120A75900034E0FA9000
:0B0342000033E0FB900072F08A821292
:0E034D0007609000051206D9D296C2977582FD
:0C035B000512071AD2A5120714C2A52231
:0C036700E582900040F0900041E4F0902E
:0C03730000427402F09000437404F0900B
:0C037F0000447408F09000457404F090F5
:0B038B0000467402F0900047E4F09080
:080396000048F0900049F090CE
:0C039E00004A7408F090004B7404F090CA
:0C03AA00004C7402F090004D7404F090C0
:0B03B600004E7408F090004FE4F0903F
:0703C1000050F090007F7472
:0A03C80041F0A37400F0A37400F0EC
:0A03D200758204120A7590007F7412
:0A03DC0049F0A37400F0A37400F0D0
:0C03E600758203120A75900040E0FA9046
:0B03F200003DE0FB900072F08A8212D8
:0E03FD0007609000051206D9D296C29775824D
:0C040B000412071AD2A5120714C2A59013
:0A041700003EE0FA90003FE0FB9089
:0C0421000072F08A821207609000051241
:0E042D0006D9D296C29775820312071AD2A57D
:06043B00120714C2A52205
:0C044100E582900054F0900055E4F0902B
:08044D000056F0900057F090FA
:0A0455000058F09000597404F09074
:0C045F00005A740AF090005B7411F090D9
:09046B00005CE4F090005DF090EB
:0C047400005E7411F090005F740AF090BC
:0B04800000607404F0900061E4F09054
:08048B000062F0900063F090A4
:070493000064F090007F748B
:0A049A0055F0A37400F0A37400F005
:0A04A400758202120A7590007F7441
:0A04AE005DF0A37400F0A37400F0E9
:0C04B800758201120A75900054E0FA9061
:0B04C4000051E0FB900072F08A8212F1
:0E04CF0007609000051206D9D296C29775827A
:0C04DD000212071AD2A5120714C2A59043
:0A04E9000052E0FA900053E0FB908F
:0C04F3000072F08A82120760900005126F
:0E04FF0006D9D296C29775820112071AD2A5AD
:06050D00120714C2A52232
:0A2E400057455254592050454E00EA
:0E051300AA83E582900065F0A3EAF0900065EF
:05052100E0FAA3E0FB7D
:08052600BA0005BB0002800FC2
:05052E001ABAFF011BD9
:0A053300900065EAF0A3EBF080E908
:09053D00900065EAF0A3EBF02246
:0E054600AA83E582900067F0A3EAF0900067B8
:05055400E0FAA3E0FB4A
:08055900BA0005BB0002801D81
:0E056100900034C002C003120513D003D00274
:05056F001ABAFF011B98
:0A057400900067EAF0A3EBF080DBD3
:09057E00900067EAF0A3EBF02203
:0B058700E582900069F0900069E0FA46
:05059200BA0002801216
:0E0597009003E8C002120546D0021A900069D7
:0405A500EAF080E90F
:0605A900900069EAF02257
:0D05AF00E58290006AF01206197582701244
:0605BC0006511206C89072
:0A05C200006AE0FAF58212065112F9
:0905CC0006C81206369000050273
:0205D5000546D9
:0A05D7001206197582711206511206
:0A05E10006C812067EAA82C00212AC
:0E05EB000636D002C0021206D1D002900005E2
:0A05F900C002120546D0028A8222D9
:05060300D293D2922207
:0E060800900001120513D2929000011205130A
:03061600C292226B
:0D061900C292D293900001120513D292906C
:0E0626000001120513C293900001120513C2C9
:02063400922210
:0E063600C292900001120513C29390000112AF
:0D0644000513D292900001120513D29322EB
:08065100E58290006BF07A00D5
:03065900BA0800DC
:0E065C00501D90006BE0FB339293C002C00370
:0E066A00120608D003D002EB2BFB90006BF0C1
:030678000A80DE17
:03067B00D29322F5
:09067E0090006CE4F0D2937A00C4
:03068700BA0800AE
:0E068A005035900001C002120513D002D2922A
:0E069800900001C002120513D00290006CE029
:0E06A60025E0FB90006CF090006CE0FBE4A2FD
:0D06B4009333FC90006C4BF0C2920A80C69C
:0706C10090006CE0F58222BD
:0906C8002093FD120608D29322D2
:0806D100D293120608D2922216
:0E06D900AA83E58290006DF0A3EAF090006D18
:0906E700E0FAA3E0FB7C007D00B9
:0E06F000C3EC9AED64808BF063F08095F050BF
:0506FE00147E647F0082
:050703001EBEFF011FF6
:0B070800EE4F70F70CBC00E00D80DD30
:0107130022C3
:060714009000050206D969
:0D071A00E58290006FF090006FE0F5802206
:0E072700E582900070F0C296C297900070E0DC
:0E073500FAF58212071AD2A5120714C2A522E5
:0607430075820102072788
:0A074900E582900071F01207149091
:0D0753000071E0FA74802AFAF5820207278F
:0E076000E582900073F0900072E0FAC36480AE
:0E076E009490502D900073E0FB70058A82027B
:02077C0007492B
:0C077E00BB010974402AFCF58202074907
:0C078A00BB020974102AFBF5820207492B
:0907960074502AFAF582020749A9
:01079F002237
:0E07A00075820012071AC2969000C81206D980
:0E07AE007582301207279000321206D975822C
:0E07BC003012072790006E1206D97582301297
:0C07CA00072775823812072775820C1271
:0C07D600072775820112072775820602B2
:0207E2000727E7
:0E07E400E582900074F0D296C297900074E007
:0E07F200FAF58212071AD2A5120714C2A52228
:0E080000AAF0AB83E582900075F0A3EBF0A3A5
:0E080E00EAF0900075E0FAA3E0FBA3E0FC7DA9
:03081C00007E005B
:0E081F00ED2AFFEE3BF88C018F82888389F072
:0E082D00122DA8FF60208F82C002C003C004FD
:0E083B00C005C0061207E4D006D005D004D0D8
:0A08490003D0020DBD00CF0E80CCDD
:010853002282
:0E085400AAF0AB83E58290007CF0A3EBF0A34A
:0E086200EAF0900078E0FAA3E0FBA3E0FCA32C
:0E087000E0FDEA4B4C4D704090007CE0FAA396
:0E087E00E0FBA3E0FC8A828B838CF0743012C6
:0E088C002BF990007C74012AF0E43BA3F0A34A
:0E089A00ECF090007CE0FAA3E0FBA3E0FC8A07
:0E08A800828B838CF0E4122BF98A828B838C76
:0208B600F0222E
:0608B800E4F508F509F566
:0308BE000AF50B2D
:0E08C100900078E0FEA3E0FFA3E0F8A3E0F9CA
:0D08CF00BE000CBF0009B80006B90003020E
:0208DC00098E83
:0E08DE0053060F7F0078007900C374099EE472
:0E08EC009F502A90007CE0F8A3E0F9A3E0FA08
:0D08FA008E0374372BFB888289838AF012ED
:0E0907002BF990007C740128F0E439A3F0A3D2
:04091500EAF080265E
:0E09190090007CE0F8A3E0F9A3E0FA74302E21
:0E092700FE888289838AF0122BF990007C747E
:0A0935000128F0E439A3F0A3EAF072
:0E093F00900078E0FAA3E0FBA3E0FCA3E0FD4B
:0E094D009002587410F0E4A3F0A3F0A3F08A17
:0E095B00828B838CF0ED122AC4AA82AB83AC8F
:0E096900F0FD900078EAF0A3EBF0A3ECF0A311
:09097700EDF00508E4B5080C05DB
:0509800009B50907059F
:050985000AB50A02059D
:01098A000B61
:03098B000208C19E
:0E098E0090007CE0FAA3E0FBA3E0FC8A828BE1
:0C099C00838CF0E4122BF91ABAFF011B47
:0E09A80090007CEAF0A3EBF0A3ECF090007C52
:0A09B600E0F510A3E0F511A3E0F551
:0609C0001274012510F580
:0509C60013E43511F5FA
:0309CB001485127E
:0309CE0015850884
:0309D1000C850989
:0309D4000D850A84
:0309D7000E850B7F
:0609DA000FE50BC313F54D
:0509E0000BE50A13F510
:0509E5000AE50913F50D
:0509EA0009E50813F50A
:0509EF0008780079000A
:0C09F400880589067F007A00C3ED950895
:080A0000EE9509EF950AEA9555
:090A08000B5058E510C398FAE503
:0A0A11001199FBAC128A828B838CD2
:080A1B00F0122DA8F516E825E4
:070A230013FEE93514FFADDD
:060A2A0015EEC3950CF56A
:050A300017EF950DF524
:040A3500188D19857A
:060A390017828518838579
:0C0A3F0019F0122DA8FD8A828B838CF028
:070A4B00122BF985178285CB
:060A520018838519F0E590
:0B0A580016122BF908B80094098091D9
:0E0A630090007CE0FAA3E0FBA3E0FC8A828B0B
:040A7100838CF02260
:0E0A7500E582900082F0900082E0FAC4035403
:0E0A8300F8FA900082F0900082E0FA74402AA7
:0E0A9100FA90007FE0FBA3E0FCA3E0FD7E00F6
:090A9F00C3EE648094884001223A
:0E0AA80074404AFFF582C002C003C004C005BE
:0E0AB600C006120727D006D005D004D003D00A
:0E0AC40002C002C003C004C005C00612071421
:0E0AD200D006D005D004D003D002D296C29731
:0E0AE000EE2BFFE43CF88D018F82888389F0B5
:0E0AEE00122DA8FFF582C002C003C004C0058F
:0E0AFC00C00612071AD006D005D004D003D0D1
:0E0B0A0002D2A5C002C003C004C005C006127E
:0E0B18000714D006D005D004D003D002C2A529
:050B26000A0E020A9F07
:0D0B2B001207439000727406F075820012EC
:090B38000760902E4A75F080124E
:0C0B410008009000727401F0758201122F
:090B4D000760902E4F75F0801234
:0C0B560008009000727401F07582021219
:090B62000760902E5A75F0801214
:0C0B6B0008009000727401F07582031203
:090B77000760902E6675F0800203
:020B800008006B
:0D0B82001207439000727405F07582001296
:090B8F000760902E7375F08002DE
:020B9800080053
:0D0B9A001207439000727405F0758200127E
:090BA7000760902E7A75F08012AF
:0C0BB00008009000727401F075820112C0
:090BBC000760902E8075F0801294
:0C0BC50008009000727401F075820212AA
:090BD1000760902E8B75F0801274
:0C0BDA0008009000727401F07582031294
:090BE6000760902E9875F0800262
:020BEF000800FC
:0D0BF1001207439000727405F07582001227
:090BFE000760902EA375F080122F
:0C0C070008009000727401F07582011268
:090C13000760902EA975F0801213
:0C0C1C0008009000727401F07582021252
:090C28000760902EAF75F0800208
:020C31000800B9
:0E0C3300900085E0FABA0F41900085E4F09041
:0D0C41000083E004FB900072E4F08B82124F
:090C4E0007607582201207E49092
:0C0C57000083E0FB90008374012BF09000
:0E0C63000083E0FB24FD50069000837402F035
:0B0C7100900083E004FBF58202020DFE
:0E0C7C00BA0A3E900085E4F0900083E004FA8E
:0E0C8A00900072E4F08A8212076075822012D8
:090C980007E4900083E0FA1490D7
:0D0CA1000083F0900083E0FA24FD500590E0
:040CAE000083E4F0EB
:0B0CB200900083E004FAF58202020DBE
:010CBD002214
:052E4A004D454E55004E
:0B2E4F004F524947494E207365740044
:0C2E5A00517569636B205072696E740042
:0D2E6600437573746F6D205072696E7400B7
:072E73004F524947494E0090
:062E7A00515549434B00D5
:0B2E8000337833205351554152450078
:0D2E8B0033783320545249414E474C4500E6
:0B2E980033783320434952434C45007F
:062EA3005052494E54009C
:062EA90053544152540095
:052EAF0053544F5000D8
:06000000020006020D28BB
:03005F00020CBED2
:050CBE00120CDB80FEBA
:0E0CC300438E0C758920758DFD759850D28E6C
:0A0CD10043880175A88190000022FD
:0A0CDB00122332120062758201122A
:090CE5000587120B2B7582011228
:080CEE00020D90000112054601
:0C0CF600120C33900085E0FABA0EF59065
:0C0D02000085E4F0900083E0FA7003121A
:020D0E000DB125
:0B0D1000900083E0FABA0103120EF914
:0D0D1B00900083E0FABA02D3120FD880CE08
:0E0D2800C0E0C0F0C082C083C002C003C0049F
:0E0D3600C005C006C007C000C001C0D075D007
:0D0D44000053A87E1205D7E582540FFA90E7
:080D51000084F0BAFF028035B6
:0B0D5900BA0308900085740DF0802A9A
:0B0D6400BA0B08900085740BF0801F94
:0B0D6F00BA0708900085740EF0801495
:0B0D7A00BA0D08900085740AF0800993
:090D8500BA0E06900085740FF00F
:0E0D8E00900084E4F043A881D0D0D001D000C2
:0E0D9C00D007D006D005D004D003D002D083FB
:070DAA00D082D0F0D0E0324E
:0A0DB1009000987401F0120B82907C
:0B0DBB000083E4F090003D7406F0900F
:0E0DC600003E7402F090003F7408F075820247
:0A0DD4001203679000517407F090BD
:0E0DDE0000527403F09000537407F075820108
:090DEC00120441900085E4F0902E
:030DF5000252F0B7
:0D0DF800900085E0FABA0B2D900085E4F024
:0A0E0500900085E0FABA0B02801598
:0D0E0F0012238E900252E0FABA0102800810
:080E1C009000191214CE80E1D0
:090E2400900085E4F0900252F008
:0D0E2D00900085E0FABA0E2D900085E4F0EB
:0A0E3A00900085E0FABA0E02801560
:0D0E4400122398900252E0FABA01028008D1
:080E510090001912152D80E13B
:090E5900900085E4F0900252F0D3
:0D0E6200900085E0FABA0A20900085E4F0C7
:0A0E6F00900085E0FABA0A0280083C
:080E790090001912227480EEB2
:090E8100900085E4F0900252F0AB
:0D0E8A00900085E0FABA0F20900085E4F09A
:0A0E9700900085E0FABA0F0280080F
:080EA1009000191222D380EE2B
:090EA900900085E4F0900252F083
:0A0EB200900085E0FABA0D028003FB
:030EBC00020DF82C
:090EBF00900085E4F01207439055
:0C0EC80000727403F07582011207609044
:0C0ED4002EB475F0801208007582011227
:090EE0000587120B2B758201122B
:080EE900020D900085E4F09079
:080EF1000083F0900098F0224C
:0A0EF900120B9A75820112020D908F
:040F03000083E4F093
:0D0F0700120C33900085E0FABA0E02800350
:030F1400020FB712
:0D0F1700900085E4F0900083E0FB702C90CA
:0C0F24000029740FF075820112027E1289
:090F3000107975820312124912B6
:0C0F390010B9900072740FF07582011264
:0A0F450007607582201207E480B8EF
:0D0F4F00BB012C900029740FF07582021276
:090F5C00027E1210797582031265
:060F650012D81210B99031
:0E0F6B000072740FF07582021207607582200A
:050F79001207E480896D
:050F7E00BB020280032C
:030F8300020F0753
:0D0F8600900029740FF075820312027E1294
:0D0F930010799000007440F5F01214141253
:0C0FA00010B9900072740FF075820312FB
:090FAC0007607582201207E402BF
:020FB5000F0724
:050FB700BA0B028003EB
:030FBC00020F071A
:0C0FBF00900083E4F0120B2B75820112ED
:0B0FCB00020D900085E4F09000010290
:020FD6000546CE
:0A0FD800120BF175820112020D9058
:040FE2000083E4F0B4
:0C0FE600120C33900085E0FABA0E6D90FA
:0C0FF2000085E4F0900083E0FB703D906F
:0E0FFE000072740BF07582021207607582207B
:09100C001207E4900083E4F09067
:0C1015000029740BF075820112027E129B
:0C10210023A2900072740BF07582011283
:09102D0007607582201207E4122D
:0410360010B980ACC1
:0D103A00BB01A9900072740BF075820112C9
:0910470007607582201207E49095
:0C1050000033740BF07582021202F302F0
:02105C000FE69D
:05105E00BA0B02800343
:03106300020FE693
:0A106600120B2B75820112020D908F
:091070000085E4F0900083F022F9
:0B2EB4004F524947494E20534554003F
:041079007A057B0079
:07107D00BA0004BB000122D0
:0E108400D295900001C002C003120546D003B1
:0E109200D002900023C002C003120513D00349
:0E10A000D002C295900012C002C00312054695
:0910AE00D003D0021ABAFF011BA5
:0210B70080C4F3
:0410B9007A057B0039
:0710BD00BA0004BB00012290
:0E10C400D295900023C002C003120513D00382
:0E10D200D00290001EC002C003120513D0030E
:0E10E000D002C295900012C002C00312054655
:0910EE00D003D0021ABAFF011B65
:0210F70080C4B3
:0410F9007A007B00FE
:0E10FD00C3EA9414EB94005015900019C00241
:0E110B00C003122274D003D0020ABA00E50B12
:0211190080E272
:01111B0022B1
:04111C007A007B00DA
:0E112000C3EA9414EB94005015900019C0021D
:0E112E00C0031222D3D003D0020ABA00E50B90
:02113C0080E24F
:01113E00228E
:04113F007A007B00B7
:0E114300C3EA9414EB94005015900019C002FA
:0E115100C0031214CED003D0020ABA00E50B80
:02115F0080E22C
:01116100226B
:041162007A007B0094
:0E116600C3EA9414EB94005015900019C002D7
:0E117400C00312152DD003D0020ABA00E50BFD
:0211820080E209
:011184002248
:041185007A007B0071
:0E118900C3EA9401EB9400501590000FC002D1
:0E119700C003121622D003D0020ABA00E50BE4
:0211A50080E2E6
:0111A7002225
:0411A8007A007B004E
:0E11AC00C3EA940FEB9400503190000FC00284
:0E11BA00C0031222D3D003D00290000FC00257
:0E11C800C0031222D3D003D00290000FC00249
:0E11D600C0031214CED003D0020ABA00C90B17
:0211E40080C6C3
:0111E60022E6
:0411E7007A007B000F
:0E11EB00C3EA940FEB9400503190000FC00245
:0E11F900C0031222D3D003D00290000FC00218
:0E120700C0031222D3D003D00290000FC00209
:0E121500C00312152DD003D0020ABA00C90B77
:0212230080C683
:0112250022A6
:041226007A007B00CF
:0E122A00C3EA9401EB9400501590000FC0022F
:0E123800C00312158CD003D0020ABA00E50BD9
:0212460080E244
:011248002283
:0D124900E582900099F0900099E0FA7B009A
:0E125600C3EB64808AF063F08095F0500EC008
:0D12640002C003121162D003D0020B80E51E
:07127100900099E0FA7B00F8
:0E127800C3EB64808AF063F08095F0500EC0E6
:0D12860002C00312111CD003D0020B80E542
:07129300900099E0FA7B00D6
:0E129A00C3EB64808AF063F08095F0500EC0C4
:0D12A80002C00312113FD003D0020B80E5FD
:0712B500900099E0FA7B00B4
:0E12BC00C3EB64808AF063F08095F0500EC0A2
:0D12CA0002C0031210F9D003D0020B80E522
:0112D70022F4
:0D12D800E58290009AF090009AE0FA7B0009
:0E12E500C3EB64808AF063F08095F0500EC079
:0D12F30002C003121185D003D0020B80E56C
:0713000090009AE0FA7B0067
:0B130700EAFC3395E0FD0CBC00010D7A
:0E131200EBFE3395E0FFC3EE9CEF64808DF0A0
:0E13200063F08095F0500EC002C003121162FF
:07132E00D003D0020B80D2B6
:021335007A0A32
:0D133700900019C00212152DD002DAF41238
:0E13440010B990009AE0FAC2D575F014EA30A4
:06135200E704B2D5F4042B
:0E135800A430D50AF42401C5F0F43400C5F029
:0A13660024F3FAE5F034FFFB7C00ED
:0E137000ECFD3395E0FEC3ED9AEE64808BF049
:0E137E0063F08095F05015900019C002C00376
:0E138C00C004122274D004D003D0020C80D60C
:0E139A0090009AE0FAC2D575F014EA30E7042C
:0413A800B2D5F404C2
:0E13AC00A430D50AF42401C5F0F43400C5F0D5
:0A13BA0024F0FAE5F034FFFB7C009C
:0E13C400ECFD3395E0FEC3ED9AEE64808BF0F5
:0E13D20063F08095F05015900019C002C00322
:0E13E000C0041214CED004D003D0020C80D66C
:0A13EE0012107990009AE0FA7B00DB
:0E13F800C3EB64808AF063F08095F0500EC065
:0D14060002C003121226D003D0020B80E5B5
:0114130022B6
:0E141400AA82AB83ACF0FD90009BEAF0A3EB44
:0E142200F0A3ECF0A3EDF090009BE0FAA3E045
:0E143000FBA3E0FCA3E0FDE4C0E0C0E074809C
:0E143E00C0E07440C0E08A828B838CF0ED1217
:0E144C0029F3AA82AB83ACF0FDE58124FCF508
:0E145A008190009BEAF0A3EBF0A3ECF0A3ED71
:0E146800F090009BE0FAA3E0FBA3E0FCA3E001
:0E147600FD8A828B838CF0C002C003C004C0CC
:0E148400051216B8D005D004D003D0028A821B
:0E1492008B838CF0EDC002C003C004C00512B5
:0E14A00019A7D005D004D003D0028A828B8316
:0E14AE008CF0EDC002C003C004C005121C96F5
:0E14BC00D005D004D003D0028A828B838CF03E
:0414CA00ED021F858B
:0E14CE00AA83E58290009FF0A3EAF0C2A0C2BC
:0D14DC00A1D2A3D2A490009FE0FAA3E0FBF0
:0E14E900EA4B6033C290C294900011C002C062
:0D14F70003120513D003D002D290D29490BE
:0E1504000011C002C003120513D003D0021A5A
:04151200BAFF011B00
:0A15160090009FEAF0A3EBF080C9FB
:0D15200090009FEAF0A3EBF0D2A0D2A12230
:0E152D00AA83E5829000A1F0A3EAF0C2A0C25A
:0D153B00A1C2A3C2A49000A1E0FAA3E0FBAE
:0E154800EA4B6033C290C294900011C002C002
:0D15560003120513D003D002D290D294905E
:0E1563000011C002C003120513D003D0021AFB
:04157100BAFF011BA1
:0A1575009000A1EAF0A3EBF080C99A
:0D157F009000A1EAF0A3EBF0D2A0D2A122CF
:0E158C00AA83E5829000A3F0A3EAF09000A3EA
:05159A00E0FAA3E0FBF4
:0E159F00EA4B602B900019C002C0031222D349
:0E15AD00D003D002900019C002C00312152D09
:0915BB00D003D0021ABAFF011B93
:0A15C4009000A3EAF0A3EBF080D141
:0915CE009000A3EAF0A3EBF02267
:0E15D700AA83E5829000A5F0A3EAF09000A59B
:0515E500E0FAA3E0FBA9
:0E15EA00EA4B602B900019C002C0031222745D
:0E15F800D003D002900019C002C00312152DBE
:09160600D003D0021ABAFF011B47
:0A160F009000A5EAF0A3EBF080D1F3
:091619009000A5EAF0A3EBF02219
:0E162200AA83E5829000A7F0A3EAF09000A74B
:05163000E0FAA3E0FB5D
:0E163500EA4B602B900019C002C0031222D3B2
:0E164300D003D002900019C002C0031214CED2
:09165100D003D0021ABAFF011BFC
:0A165A009000A7EAF0A3EBF080D1A6
:091664009000A7EAF0A3EBF022CC
:0E166D00AA83E5829000A9F0A3EAF09000A9FC
:05167B00E0FAA3E0FB12
:0E168000EA4B602B900019C002C003122274C6
:0E168E00D003D002900019C002C0031214CE87
:09169C00D003D0021ABAFF011BB1
:0A16A5009000A9EAF0A3EBF080D159
:0916AF009000A9EAF0A3EBF0227F
:0E16B800AA82AB83ACF0FD9000ABEAF0A3EB8E
:0E16C600F0A3ECF0A3EDF09000ABE0FAA3E08F
:0E16D400FBA3E0FCA3E0FDE4C0E0C0E07480F6
:0E16E200C0E07440C0E08A828B838CF0ED1271
:0E16F00029F3AA82AB83ACF0FDE58124FCF562
:0E16FE00819000ABEAF0A3EBF0A3ECF0A3EDBB
:0A170C00F09000ABE0F523A3E0F538
:0817160024A3E0F525A3E0F592
:0C171E0026E4C0E0C0E07480C0E074402D
:09172A00C0E0852382852483853B
:0517330025F0E526127F
:0E17380029F3AE82AF83A8F0F9E58124FCF519
:0D174600818E828F8388F0E9122D4E8582FE
:051753002185832285C1
:06175800218285228312AC
:06175E00152D8523828594
:0617640024838525F0E559
:0C176A0026122D4EA882A983C000C001E9
:0E1776001222D3D001D000C000C001E4C0E0B8
:0C178400C0E07440C0E0C0E08523828516
:0617900024838525F0E52D
:0C179600261229F3AE82AF83AAF0FBE517
:0E17A2008124FCF581D001D0008E828F838AD5
:0E17B000F0EBC000C001122D4EAA82AB83D018
:0E17BE0001D0008A828B83C002C003C000C02D
:0E17CC000112152DD001D000D003D00288826A
:0E17DA008983C002C003C000C0011222D3D018
:0E17E80001D000D003D002C002C003C000C078
:0D17F60001E4C0E0C0E0C0E07440C0E08548
:0618030023828524838589
:0518090025F0E52612A8
:0E180E0029F3AC82AD83AEF0FFE58124FCF53A
:0E181C0081D001D000D003D0028C828D838E4B
:0E182A00F0EFC002C003C000C001122D4EAC92
:0E18380082AD83D001D000D003D0028C828D0F
:0E18460083C002C003C004C005C000C0011270
:0E185400152DD001D000D005D004D003D00255
:0E18620088828983C002C003C004C005C00094
:0E187000C0011222D3D001D000D005D004D088
:0E187E0003D0028C828D83C002C003C004C060
:0E188C0005C000C00112152DD001D000D005FE
:0E189A00D004D003D00288828983C002C0032C
:0E18A800C004C005C000C0011222D3D001D080
:0E18B60000D005D004D003D00288828983C000
:0E18C40002C003C004C005C000C00112152DF3
:0E18D200D001D000D005D004D003D00288820F
:0E18E0008983C002C003C004C005C000C0015F
:0E18EE001222D3D001D000D005D004D003D0F8
:0E18FC000288828983C002C003C004C005C0F8
:0E190A0000C00112152DD001D000D005D00470
:0E191800D003D00288828983C002C003C004BD
:0E192600C005C000C0011222D3D001D000D0F5
:0E19340005D004D003D00288828983C002C08F
:0E19420003C004C005C000C00112152DD00165
:0E195000D000D005D004D003D0028C828D834D
:0E195E00C002C003C000C0011222D3D001D0CD
:0E196C0000D003D00288828983C002C003C06D
:0E197A0000C00112152DD001D000D003D00204
:0E1988008A828B83C000C0011222D3D001D00E
:0C199600008882898312152D852182852E
:0519A20022830222D3A4
:0E19A700AA82AB83ACF0FD9000AFEAF0A3EB98
:0E19B500F0A3ECF0A3EDF09000AFE0FAA3E099
:0E19C300FBA3E0FCA3E0FDE4C0E0C0E0748004
:0E19D100C0E07440C0E08A828B838CF0ED127F
:0E19DF0029F3AA82AB83ACF0FDE58124FCF570
:0E19ED00819000AFEAF0A3EBF0A3ECF0A3EDC5
:0A19FB00F09000AFE0F529A3E0F53D
:081A05002AA3E0F52BA3E0F594
:0C1A0D002CE4C0E0C0E07480C0E0744035
:091A1900C0E0852982852A83853D
:051A22002BF0E52C1281
:0E1A270029F3AE82AF83A8F0F9E58124FCF527
:0D1A3500818E828F8388F0E9122D4E85820C
:051A42002785832885C3
:061A4700278285288312AE
:061A4D0022D385298285E9
:061A53002A83852BF0E55B
:0C1A59002C122D4EA882A983C000C001F1
:0E1A65001214CED001D000C000C001E4C0E0D9
:0C1A7300C0E07440C0E0C0E0852982851E
:061A7F002A83852BF0E52F
:0C1A85002C1229F3AE82AF83AAF0FBE51F
:0E1A91008124FCF581D001D0008E828F838AE3
:0E1A9F00F0EBC000C001122D4EAA82AB83D026
:0E1AAD0001D0008A828B83C002C003C000C03B
:0E1ABB00011222D3D001D000D003D0028882C5
:0E1AC9008983C002C003C000C0011214CED039
:0E1AD70001D000D003D002C002C003C000C086
:0D1AE50001E4C0E0C0E0C0E07440C0E08556
:061AF2002982852A83858C
:051AF8002BF0E52C12AB
:0E1AFD0029F3AC82AD83AEF0FFE58124FCF549
:0E1B0B0081D001D000D003D0028C828D838E59
:0E1B1900F0EFC002C003C000C001122D4EACA0
:0E1B270082AD83D001D000D003D0028C828D1D
:0E1B350083C002C003C004C005C000C001127E
:0E1B430022D3D001D000D005D004D003D002B0
:0E1B510088828983C002C003C004C005C000A2
:0E1B5F00C0011214CED001D000D005D004D0A9
:0E1B6D0003D0028C828D83C002C003C004C06E
:0E1B7B0005C000C0011222D3D001D000D00559
:0E1B8900D004D003D00288828983C002C0033A
:0E1B9700C004C005C000C0011214CED001D0A1
:0E1BA50000D005D004D003D00288828983C00E
:0E1BB30002C003C004C005C000C0011222D34E
:0E1BC100D001D000D005D004D003D00288821D
:0E1BCF008983C002C003C004C005C000C0016D
:0E1BDD001214CED001D000D005D004D003D019
:0E1BEB000288828983C002C003C004C005C006
:0E1BF90000C0011222D3D001D000D005D004CC
:0E1C0700D003D00288828983C002C003C004CB
:0E1C1500C005C000C0011214CED001D000D016
:0E1C230005D004D003D00288828983C002C09D
:0E1C310003C004C005C000C0011222D3D001C0
:0E1C3F00D000D005D004D003D0028C828D835B
:0E1C4D00C002C003C000C0011214CED001D0EE
:0E1C5B0000D003D00288828983C002C003C07B
:0E1C690000C0011222D3D001D000D003D0025F
:0E1C77008A828B83C000C0011214CED001D02F
:0C1C850000888289831222D38527828583
:051C910028830214CEBF
:0E1C9600AA82AB83ACF0FD9000B3EAF0A3EBA2
:0E1CA400F0A3ECF0A3EDF09000B3E0FAA3E0A3
:0E1CB200FBA3E0FCA3E0FDE4C0E0C0E0748012
:0E1CC000C0E07440C0E08A828B838CF0ED128D
:0E1CCE0029F3AA82AB83ACF0FDE58124FCF57E
:0E1CDC00819000B3EAF0A3EBF0A3ECF0A3EDCF
:0A1CEA00F09000B3E0F52FA3E0F541
:081CF40030A3E0F531A3E0F597
:0C1CFC0032E4C0E0C0E07480C0E074403E
:091D0800C0E0852F82853083853F
:051D110031F0E5321283
:0E1D160029F3AE82AF83A8F0F9E58124FCF535
:0D1D2400818E828F8388F0E9122D4E85821A
:051D31002D85832E85C5
:061D36002D82852E8312B0
:061D3C0014CE852F828504
:061D420030838531F0E55D
:0C1D480032122D4EA882A983C000C001F9
:0E1D5400122274D001D000C000C001E4C0E033
:0C1D6200C0E07440C0E0C0E0852F828526
:061D6E0030838531F0E531
:0C1D7400321229F3AE82AF83AAF0FBE527
:0E1D80008124FCF581D001D0008E828F838AF1
:0E1D8E00F0EBC000C001122D4EAA82AB83D034
:0E1D9C0001D0008A828B83C002C003C000C049
:0E1DAA00011214CED001D000D003D0028882E6
:0E1DB8008983C002C003C000C001122274D093
:0E1DC60001D000D003D002C002C003C000C094
:0D1DD40001E4C0E0C0E0C0E07440C0E08564
:061DE1002F82853083858E
:051DE70031F0E53212AD
:0E1DEC0029F3AC82AD83AEF0FFE58124FCF557
:0E1DFA0081D001D000D003D0028C828D838E68
:0E1E0800F0EFC002C003C000C001122D4EACAE
:0E1E160082AD83D001D000D003D0028C828D2B
:0E1E240083C002C003C004C005C000C001128C
:0E1E320014CED001D000D005D004D003D002D1
:0E1E400088828983C002C003C004C005C000B0
:0E1E4E00C001122274D001D000D005D004D003
:0E1E5C0003D0028C828D83C002C003C004C07C
:0E1E6A0005C000C0011214CED001D000D0057A
:0E1E7800D004D003D00288828983C002C00348
:0E1E8600C004C005C000C001122274D001D0FB
:0E1E940000D005D004D003D00288828983C01C
:0E1EA20002C003C004C005C000C0011214CE6F
:0E1EB000D001D000D005D004D003D00288822B
:0E1EBE008983C002C003C004C005C000C0017B
:0E1ECC00122274D001D000D005D004D003D073
:0E1EDA000288828983C002C003C004C005C014
:0E1EE80000C0011214CED001D000D005D004ED
:0E1EF600D003D00288828983C002C003C004DA
:0E1F0400C005C000C001122274D001D000D070
:0E1F120005D004D003D00288828983C002C0AB
:0E1F200003C004C005C000C0011214CED001E1
:0E1F2E00D000D005D004D003D0028C828D8369
:0E1F3C00C002C003C000C001122274D001D048
:0E1F4A0000D003D00288828983C002C003C089
:0E1F580000C0011214CED001D000D003D00280
:0E1F66008A828B83C000C001122274D001D089
:0C1F740000888289831214CE852D82859E
:051F80002E8302227413
:0E1F8500AA82AB83ACF0FD9000B7EAF0A3EBAC
:0E1F9300F0A3ECF0A3EDF09000B7E0FAA3E0AD
:0E1FA100FBA3E0FCA3E0FDE4C0E0C0E0748020
:0E1FAF00C0E07440C0E08A828B838CF0ED129B
:0E1FBD0029F3AA82AB83ACF0FDE58124FCF58C
:0E1FCB00819000B7EAF0A3EBF0A3ECF0A3EDD9
:0A1FD900F09000B7E0F535A3E0F545
:081FE30036A3E0F537A3E0F599
:0C1FEB0038E4C0E0C0E07480C0E0744046
:091FF700C0E08535828536838542
:0520000037F0E5381285
:0E20050029F3AE82AF83A8F0F9E58124FCF543
:0D201300818E828F8388F0E9122D4E858228
:052020003385833485C7
:06202500338285348312B2
:06202B0022748535828558
:0620310036838537F0E55F
:0C20370038122D4EA882A983C000C00101
:0E20430012152DD001D000C000C001E4C0E095
:0C205100C0E07440C0E0C0E0853582852E
:06205D0036838537F0E533
:0C206300381229F3AE82AF83AAF0FBE52F
:0E206F008124FCF581D001D0008E828F838AFF
:0E207D00F0EBC000C001122D4EAA82AB83D042
:0E208B0001D0008A828B83C002C003C000C057
:0E20990001122274D001D000D003D002888240
:0E20A7008983C002C003C000C00112152DD0F5
:0E20B50001D000D003D002C002C003C000C0A2
:0D20C30001E4C0E0C0E0C0E07440C0E08572
:0620D00035828536838590
:0520D60037F0E53812AF
:0E20DB0029F3AC82AD83AEF0FFE58124FCF565
:0E20E90081D001D000D003D0028C828D838E76
:0E20F700F0EFC002C003C000C001122D4EACBD
:0E21050082AD83D001D000D003D0028C828D39
:0E21130083C002C003C004C005C000C001129A
:0E2121002274D001D000D005D004D003D0022B
:0E212F0088828983C002C003C004C005C000BE
:0E213D00C00112152DD001D000D005D004D065
:0E214B0003D0028C828D83C002C003C004C08A
:0E21590005C000C001122274D001D000D005D4
:0E216700D004D003D00288828983C002C00356
:0E217500C004C005C000C00112152DD001D05D
:0E21830000D005D004D003D00288828983C02A
:0E21910002C003C004C005C000C001122274C9
:0E219F00D001D000D005D004D003D002888239
:0E21AD008983C002C003C004C005C000C00189
:0E21BB0012152DD001D000D005D004D003D0D5
:0E21C9000288828983C002C003C004C005C022
:0E21D70000C001122274D001D000D005D00447
:0E21E500D003D00288828983C002C003C004E8
:0E21F300C005C000C00112152DD001D000D0D3
:0E22010005D004D003D00288828983C002C0B9
:0E220F0003C004C005C000C001122274D0013B
:0E221D00D000D005D004D003D0028C828D8377
:0E222B00C002C003C000C00112152DD001D0AA
:0E22390000D003D00288828983C002C003C097
:0E22470000C001122274D001D000D003D002DA
:0E2255008A828B83C000C00112152DD001D0EB
:0C226300008882898312227485338285F2
:05226F00348302152D6F
:0E227400AA83E5829000BBF0A3EAF0C2A0C2EC
:0D228200A1C2A3D2A49000BBE0FAA3E0FB30
:0E228F00EA4B6033C290C294900011C002C0AE
:0D229D0003120513D003D002D290D294900A
:0E22AA000011C002C003120513D003D0021AA7
:0422B800BAFF011B4D
:0A22BC009000BBEAF0A3EBF080C92C
:0D22C6009000BBEAF0A3EBF0D2A0D2A12261
:0E22D300AA83E5829000BDF0A3EAF0C2A0C28B
:0D22E100A1D2A3C2A49000BDE0FAA3E0FBCF
:0E22EE00EA4B6033C290C294900011C002C04F
:0D22FC0003120513D003D002D290D29490AB
:0E2309000011C002C003120513D003D0021A47
:04231700BAFF011BED
:0A231B009000BDEAF0A3EBF080C9CA
:0D2325009000BDEAF0A3EBF0D2A0D2A122FF
:0A2332001207A075820F1205AF120A
:09233C000743900005120546124A
:0523450010790210B93F
:0C234A00E5829000BFF09000BFE0F59924
:0523560010990280FB5C
:01235B00225F
:0C235C00E59830E0FBC298AA998A822222
:0E236800900251E4F030A21D20A61A900251FE
:0C2376007401F01210B99003E81222D399
:0B23820030A2089000191214CE80F564
:01238D00222D
:09238E0020A2069002527401F035
:012397002223
:0923980020A6069002527401F027
:0123A1002219
:0E23A200900254E4F0A3F0900256E4F0A3F091
:0D23B000900251E4F0900253F0758221126A
:0223BD00234AB1
:0E23BF0012235CAA82C00212235CAB82D00201
:0E23CD00C002C00312235CAC82D003D002EC2D
:0D23DB003395E0FDC002C003C004C0051230
:0E23E800235CAE82D005D004D003D002EA24DC
:0E23F600D075F00AA4FAEB24D075F00AA4F515
:0C2404003FEC24D0FCED34FFFD9002659D
:0E241000740AF0E4A3F08C828D83C002C00633
:0E241E00122C12AC82AD83D006D002EE24D078
:0A242C00F541C2D5E53F30E704B2E8
:03243600D5F404D6
:0A243900F5F0EA30E704B2D5F40430
:0E244300A430D50AF42401C5F0F43400C5F02D
:0B245100FFA8F0BC1405BD00028003D2
:03245C0002277DD7
:0D245F00C2D575F019EA30E704B2D5F404D7
:0E246C00A430D50AF42401C5F0F43400C5F004
:0A247A00F54185F042C2D575F01659
:08248400EA30E704B2D5F404CC
:0E248C00A430D50AF42401C5F0F43400C5F0E4
:0A249A00F53985F03AC2D575F0FA65
:0924A400E53F30E704B2D5F40471
:0E24AD00A430D50AF42401C5F0F43400C5F0C3
:0724BB00F53B85F03CE4F560
:0324C2003DF53EA7
:0A24C500C37463953D7480853EF0FA
:0A24CF0063F08095F05003022771BE
:0424D9007B007E0006
:0E24DD00C3EB9FEE648088F063F08095F050B2
:0A24EB0050EB24C0F9EE3400FCC0F1
:0E24F50002C003C004C006C007C000C0011230
:0E250300235CAD82D001D000D007D006D004FA
:0E251100D003D00289828C83EDF0758251C018
:0E251F0002C003C006C007C00012234AD0004D
:0E252D00D007D006D003D0020BBB00A40E8056
:01253B00A1FE
:04253C007B007E00A2
:0E254000C3EB9FEE648088F063F08095F0405E
:04254E00030226F26C
:0A255200EB24C0F582EE3400F5839F
:0E255C00E0F9B9314E900254E0F9A3E0FC49D9
:0D256A007027C002C003C006C007C00012E9
:0D2577001079D000D007D006D003D002901C
:0E25840002547401F0E4A3F0900256E4F0A3B8
:01259200F058
:0E259300900019C002C003C006C007C00012AD
:0E25A100152DD000D007D006D003D002804CFC
:0E25AF00900256E0FCA3E0FD4C7027C002C075
:0E25BD0003C006C007C0001210B9D000D0073E
:0E25CB00D006D003D0029002567401F0E4A3B3
:0825D900F0900254E4F0A3F0BD
:0E25E100900019C002C003C006C007C000125F
:0C25EF00152DD000D007D006D003D0027C
:0E25FB0074012BFCE43EFD900267EAF0EA3327
:0E26090095E0A3F08C828D83C002C003C00652
:0E261700C007C000122C32E5828583F0D0008F
:0E262500D007D006D003D00245F0705EC00290
:0E263300C003C006C007C0001210B9D000D00E
:0E26410007D006D003D0029002567401F0E4D8
:0E264F00A3F0900254E4F0A3F0900019C00232
:0E265D00C003C006C007C0001222D3D000D0B8
:0B266B0007D006D003D0028541828515
:0C2676004283C002C003C006C007C000C1
:0D2682001214CED000D007D006D003D00235
:0E268F00C002C003C006C007C000122368D0FE
:0E269D0000D007D006D003D002900251E0FC1E
:0B26AB00BC01089002537401F0803C59
:0E26B600C002C003C006C007C000120C33D023
:0E26C40000D007D006D003D002900085E0FCC5
:0E26D200BC0E15900085E4F0900083E0FCBC87
:0A26E00001089002537401F0800815
:0526EA000BBB00010E16
:0326EF0002254081
:0A26F200900253E0FCBC0102807569
:0E26FC00758253C002C007C00012234AD000EE
:0B270A00D007D0027401253DFCE4352F
:0C2715003EFD900267740AF0E4A3F08C13
:0E272100828D83C002C007C000122C32E582F8
:0E272F008583F0D000D007D00245F0702A85D7
:0A273D003982853A83C002C007C04C
:0C2747000012152DD000D007D002853BF9
:0B27530082853C83C002C007C000125A
:08275E002274D000D007D00264
:07276600053DE4B53D02054D
:01276D003E2D
:03276E000224C57D
:09277100900253E0FCBC010122BE
:03277A000223BF78
:04277D007C007D005F
:0E278100C3EC9FED648088F063F08095F0500B
:0A278F0050EC24C0F9ED3400FEC048
:0E27990002C004C005C006C007C000C0011287
:0E27A700235CAB82D001D000D007D006D00555
:0E27B500D004D00289828E83EBF0758251C071
:0E27C30002C004C005C007C00012234AD000A7
:0E27D100D007D005D004D0020CBC00A40D80AF
:0127DF00A158
:0D27E000C2D575F019EA30E704B2D5F40453
:0E27ED00A430D50AF42401C5F0F43400C5F080
:0927FB00F53D85F03E7D007900FA
:0E280400C3ED9FE9648088F063F08095F0409A
:04281200030229AAEA
:0A281600ED24C0F582E93400F583DB
:07282000E0FEE4BE310104FB
:0E282700604E900254E0FEA3E0FB4E7027C00E
:0E28350002C005C007C000C001121079D0011A
:0E284300D000D007D005D0029002547401F0EE
:0A285100E4A3F0900256E4F0A3F0B7
:0E285B00900019C002C005C007C000C00112E5
:0E286900152DD001D000D007D005D002804C34
:0E287700900256E0FBA3E0FC4B7027C002C0AD
:0E28850005C007C000C0011210B9D001D0007C
:0E289300D007D005D0029002567401F0E4A3E5
:0828A100F0900254E4F0A3F0F2
:0E28A900900019C002C005C007C000C0011297
:0C28B700152DD001D000D007D005D002B4
:0E28C30074012DFBE439FC900267EAF0EA3361
:0E28D10095E0A3F08B828C83C002C005C00787
:0E28DF00C000C001122C32E5828583F0D001CA
:0E28ED00D000D007D005D00245F0705EC002CA
:0E28FB00C005C007C000C0011210B9D001D046
:0E29090000D007D005D0029002567401F0E411
:0E291700A3F0900254E4F0A3F0900019C00267
:0E292500C005C007C000C0011222D3D001D0EF
:0B29330000D007D005D002853D828552
:0C293E003E83C002C005C007C000C001FD
:0D294A001214CED001D000D007D005D0026D
:0E295700C002C005C007C000C001122368D036
:0E29650001D000D007D005D002C002C005C0CE
:0E29730007C000C001120C33D001D000D00705
:0D298100D005D002900085E0FBBB0E159044
:0D298E000085E4F0900083E0FBBB010890A1
:07299B0002537401F08008F3
:0529A2000DBD0001095C
:0329A700022804FF
:0929AA00900253E0FABA01012287
:0729B300853D82853E831281
:0C29BA00152DC2D575F019E53F30E7047B
:0429C600B2D5F4048E
:0E29CA00A430D50AF42401C5F0F43400C5F0A1
:0E29D800FAABF08A828B83122274758253123E
:0929E600234AE541B4010280031B
:0329EF000223BF01
:0129F20022C2
:0629F300122A96BC00034D
:0329F900022D7A32
:0829FC00EF60FA30D502B2D100
:082A0400E583B4FF03022D90ED
:082A0C00E582B4FF03022D90E6
:0B2A1400258340072482400B022D7A2E
:082A1F002483145003022D90E2
:0E2A2700F582EA8DF0A4A8F0EA8EF0A428F85B
:0E2A3500E435F0F9EB8DF0A428E935F0F9E472
:0E2A430033CA8FF0A429F9EA35F0FAEBF88EC9
:0E2A5100F0A429F9EA35F0FAE433FBEC8DF03D
:0E2A5F00A429F9EA35F0FAE43BFBE88FF0A475
:0E2A6D002AFAEB35F0FBE433CCFD8EF0A42A00
:0E2A7B00FAEB35F0FBE43CFCED8FF0A42BFBF6
:0A2A8900EC35F0FC20E703122BD01F
:032A9300022D59B8
:0D2A9600AA82AB83A2F73392D16002D2F77F
:0E2AA300F582ACF0E58124F9F8E6FD08E6FEC8
:0E2AB1000886F008E6A2F73392D56002D2F74D
:052ABF00F583AFF022D9
:0E2AC400AA82AB83ACF0FD90025CEAF0A3EBBB
:0E2AD200F0A3ECF0A3EDF0900260E4F0A3F0AE
:0E2AE000A3F0A3F0900258E0FAA3E0FBA3E0FD
:072AEE00FCA3E0FD751A20B6
:0E2AF50090025CE0FFA3E0F8A3E0F9A3E0FE8E
:0C2B0300339200EF2FFFE833F8E933F9BC
:0E2B0F00EE33FE90025CEFF0A3E8F0A3E9F0D5
:0E2B1D00A3EEF0900260E0FEA3E0FFA3E0F85C
:0E2B2B00A3E0F9EE2EFEEF33FFE833F8E933B6
:0E2B3900F9900260EEF0A3EFF0A3E8F0A3E93C
:0C2B4700F030001E900260E0FFA3E0F8F8
:0E2B5300A3E0F9A3E0FE90026074014FF0A32E
:082B6100E8F0A3E9F0A3EEF097
:0E2B6900900260E0FEA3E0FFA3E0F8A3E0F915
:0E2B7700C3EE9AEF9BE89CE99D40319002600E
:0E2B8500EEC39AF0EF9BA3F0E89CA3F0E99D4D
:0E2B9300A3F090025CE0FEA3E0FFA3E0F8A335
:0E2BA100E0F990025C74014EF0A3EFF0A3E89F
:042BAF00F0A3E9F0B6
:052BB300D51A028003A9
:032BB800022AF5F9
:0E2BBB0090025CE0FAA3E0FBA3E0FCA3E0FDC7
:072BC9008A828B838CF0224D
:06003500E478FFF6D8FD9F
:022BD000780487
:0E2BD200EC700DC9CACBFCE58224F8F582D860
:022BE000F122E0
:022BE200782059
:0E2BE40020E7111582C3E933F9EA33FAEB3327
:062BF200FBEC33FCD8EC03
:012BF80022BA
:080013007900E94400601B7A4A
:05001B0000902EBF78EB
:030020007075A058
:0A00230002E493F2A308B8000205FE
:08002D00A0D9F4DAF275A0FF7E
:0E2BF90020F71030F6118883A88220F507F629
:052C0700A883758300A5
:012C0C0022A5
:032C0D00F280F75B
:022C1000F022B0
:0E2C1200AA83AB828BF0900265E0A4F8A9F0D3
:0E2C20008AF0E0A429F98BF0A3E0A429F58343
:042C2E008882222254
:0E2C3200AA83E582900269F0A3EAF09002699D
:0E2C4000E0FAA3E0FB30E709C3E49AFCE49B52
:032C4E00FD800402
:042C51008A048B0561
:0E2C55008C028D03900267E0FCA3E0FD30E7E7
:0A2C630009C3E49CFEE49DFF800419
:042C6D008C068D073D
:0D2C710090026BEEF0A3EFF08A828B8312CD
:0E2C7E002CA0AA82AB83900269E0FCA3E0FDCB
:0E2C8C0030E70CC3E49AFCE49BFD8C828D8340
:012C9A002217
:052C9B008A828B8322F8
:0E2CA000AA83E58290026DF0A3EAF090026F25
:0C2CAE00E4F090026DE0FAA3E0FB7C0073
:0E2CBA0090026BE0FDA3E0FE235401FF703793
:0E2CC800EECD25E0CD33FE90026BEDF0A3EED5
:0E2CD600F090026BE0FDA3E0FEC3EA9DEB9ED2
:0E2CE4005011EEC313CD13CDFE90026BEDF038
:052CF200A3EEF08008D4
:082CF7000C90026FECF080BBB1
:052CFF0090026FE0FAF5
:0E2D040090026DE0FBA3E0FC90026BE0FDA3EB
:0E2D1200E0FEC3EB9DEC9E400B90026DEBC308
:062D20009DF0EC9EA3F003
:0E2D260090026BE0FBA3E0FCC313CB13CBFCCD
:0E2D340090026BEBF0A3ECF08A031AEB70C276
:0C2D420090026DE0FAA3E08A82F5832283
:08003B007800E84400600A7936
:030043000075A0A5
:0600460000E4F309D8FC00
:08004C007870E84402600C79B1
:0B00540003900000E4F0A3D8FCD9FAF0
:0B2D4E007F8E122DC6F58385F08222D7
:062D5900B98003EA13B388
:0E2D5F004010EA2401FAE43BFBE43CFC500483
:042D6D007C800582DF
:092D7100BC000EBB000BBA000807
:082D7A00E4F5F0F583F5822277
:0E2D8200A2D1E582138CF092F78B838A822215
:0D2D9000E4F583F58275F080F4A2D11322E2
:0B2D9D00E4F583F58275F0C0747F221E
:03000600758142BF
:0A000900120CC3E5826003020CBE76
:0E2DA80020F71430F6148883A88220F507E681
:062DB600A88375830022D2
:032DBC00E280F7BB
:032DBF00E4932278
:022DC200E0220D
:022DC4007F9EF0
:092DC600122E2E30D103022D7AE9
:0E2DCF00C3EF9582500974FFF5F0F583F5828D
:012DDD0022D3
:052DDE007900122DEB4D
:082DE30089828A838BF0EC2247
:092DEB006040F82582500274FFDB
:0E2DF400F582E824F8501ECCCBCAF9E4CC24BA
:0E2E0200F85014CBCAF9E4CB24F8500BCAF9EF
:092E1000E4CA24F8500379002201
:052E190024086010F820
:0E2E1E00C3EC13FCEB13FBEA13FAE913F9D82B
:012E2C00F1B4
:012E2D002282
:0D2E2E00AA82AB83A2F73392D16002D2F7E3
:052E3B00F582ACF0225D
:00000001FF
